{
  "contractName": "DataFactModel",
  "abi": [
    {
      "inputs": [],
      "stateMutability": "nonpayable",
      "type": "constructor"
    },
    {
      "anonymous": false,
      "inputs": [
        {
          "indexed": true,
          "internalType": "address",
          "name": "user",
          "type": "address"
        },
        {
          "indexed": false,
          "internalType": "string[]",
          "name": "queryDimensions",
          "type": "string[]"
        }
      ],
      "name": "QueryCheck",
      "type": "event"
    },
    {
      "inputs": [],
      "name": "allowedDimensions",
      "outputs": [
        {
          "internalType": "bool",
          "name": "ProductName",
          "type": "bool"
        },
        {
          "internalType": "bool",
          "name": "Category",
          "type": "bool"
        },
        {
          "internalType": "bool",
          "name": "Material",
          "type": "bool"
        },
        {
          "internalType": "bool",
          "name": "Year",
          "type": "bool"
        },
        {
          "internalType": "bool",
          "name": "Month",
          "type": "bool"
        },
        {
          "internalType": "bool",
          "name": "Day",
          "type": "bool"
        },
        {
          "internalType": "bool",
          "name": "TotalEmissionsKgCO2e",
          "type": "bool"
        }
      ],
      "stateMutability": "view",
      "type": "function",
      "constant": true
    },
    {
      "inputs": [
        {
          "internalType": "string[]",
          "name": "queryDimensions",
          "type": "string[]"
        }
      ],
      "name": "isQueryAllowed",
      "outputs": [
        {
          "internalType": "bool",
          "name": "",
          "type": "bool"
        }
      ],
      "stateMutability": "view",
      "type": "function",
      "constant": true
    },
    {
      "inputs": [
        {
          "internalType": "string[]",
          "name": "queryDimensions",
          "type": "string[]"
        }
      ],
      "name": "executeQuery",
      "outputs": [],
      "stateMutability": "nonpayable",
      "type": "function"
    }
  ],
  "bytecode": "0x608060405234801561001057600080fd5b5060008060000160006101000a81548160ff02191690831515021790555060008060000160016101000a81548160ff02191690831515021790555060016000800160026101000a81548160ff02191690831515021790555060016000800160036101000a81548160ff02191690831515021790555060016000800160046101000a81548160ff02191690831515021790555060008060000160056101000a81548160ff02191690831515021790555060016000800160066101000a81548160ff021916908315150217905550610f1c806100eb6000396000f3fe608060405234801561001057600080fd5b50600436106100415760003560e01c80630a6200b714610046578063452b79ca14610076578063e4bf06301461009a575b600080fd5b610060600480360381019061005b91906107f9565b6100b6565b60405161006d9190610c2e565b60405180910390f35b61007e6105e6565b6040516100919796959493929190610c49565b60405180910390f35b6100b460048036038101906100af91906107f9565b610671565b005b600080600090505b82518110156105db576040516020016100d690610be2565b60405160208183030381529060405280519060200120838281518110610125577f4e487b7100000000000000000000000000000000000000000000000000000000600052603260045260246000fd5b602002602001015160405160200161013d9190610b62565b6040516020818303038152906040528051906020012014801561016f57506000800160009054906101000a900460ff16155b1561017e5760009150506105e1565b60405160200161018d90610b79565b604051602081830303815290604052805190602001208382815181106101dc577f4e487b7100000000000000000000000000000000000000000000000000000000600052603260045260246000fd5b60200260200101516040516020016101f49190610b62565b6040516020818303038152906040528051906020012014801561022657506000800160019054906101000a900460ff16155b156102355760009150506105e1565b60405160200161024490610bb8565b60405160208183030381529060405280519060200120838281518110610293577f4e487b7100000000000000000000000000000000000000000000000000000000600052603260045260246000fd5b60200260200101516040516020016102ab9190610b62565b604051602081830303815290604052805190602001201480156102dd57506000800160029054906101000a900460ff16155b156102ec5760009150506105e1565b6040516020016102fb90610b8e565b6040516020818303038152906040528051906020012083828151811061034a577f4e487b7100000000000000000000000000000000000000000000000000000000600052603260045260246000fd5b60200260200101516040516020016103629190610b62565b6040516020818303038152906040528051906020012014801561039457506000800160039054906101000a900460ff16155b156103a35760009150506105e1565b6040516020016103b290610bcd565b60405160208183030381529060405280519060200120838281518110610401577f4e487b7100000000000000000000000000000000000000000000000000000000600052603260045260246000fd5b60200260200101516040516020016104199190610b62565b6040516020818303038152906040528051906020012014801561044b57506000800160049054906101000a900460ff16155b1561045a5760009150506105e1565b60405160200161046990610ba3565b604051602081830303815290604052805190602001208382815181106104b8577f4e487b7100000000000000000000000000000000000000000000000000000000600052603260045260246000fd5b60200260200101516040516020016104d09190610b62565b6040516020818303038152906040528051906020012014801561050257506000800160059054906101000a900460ff16155b156105115760009150506105e1565b60405160200161052090610bf7565b6040516020818303038152906040528051906020012083828151811061056f577f4e487b7100000000000000000000000000000000000000000000000000000000600052603260045260246000fd5b60200260200101516040516020016105879190610b62565b604051602081830303815290604052805190602001201480156105b957506000800160069054906101000a900460ff16155b156105c85760009150506105e1565b80806105d390610e2e565b9150506100be565b50600190505b919050565b60008060000160009054906101000a900460ff16908060000160019054906101000a900460ff16908060000160029054906101000a900460ff16908060000160039054906101000a900460ff16908060000160049054906101000a900460ff16908060000160059054906101000a900460ff16908060000160069054906101000a900460ff16905087565b61067a816100b6565b6106b9576040517f08c379a00000000000000000000000000000000000000000000000000000000081526004016106b090610cb8565b60405180910390fd5b3373ffffffffffffffffffffffffffffffffffffffff167f4d71e3f38bf01e8ea82714e1b3bd91217fd29e3353662288c2a88bbd4ecd4d53826040516106ff9190610c0c565b60405180910390a250565b600061071d61071884610d09565b610cd8565b9050808382526020820190508260005b8581101561075d578135850161074388826107cf565b84526020840193506020830192505060018101905061072d565b5050509392505050565b600061077a61077584610d35565b610cd8565b90508281526020810184848401111561079257600080fd5b61079d848285610dec565b509392505050565b600082601f8301126107b657600080fd5b81356107c684826020860161070a565b91505092915050565b600082601f8301126107e057600080fd5b81356107f0848260208601610767565b91505092915050565b60006020828403121561080b57600080fd5b600082013567ffffffffffffffff81111561082557600080fd5b610831848285016107a5565b91505092915050565b600061084683836108d2565b905092915050565b600061085982610d75565b6108638185610d98565b93508360208202850161087585610d65565b8060005b858110156108b15784840389528151610892858261083a565b945061089d83610d8b565b925060208a01995050600181019050610879565b50829750879550505050505092915050565b6108cc81610dd6565b82525050565b60006108dd82610d80565b6108e78185610da9565b93506108f7818560208601610dfb565b61090081610ed5565b840191505092915050565b600061091682610d80565b6109208185610dcb565b9350610930818560208601610dfb565b80840191505092915050565b6000610949600883610dcb565b91507f43617465676f72790000000000000000000000000000000000000000000000006000830152600882019050919050565b6000610989600483610dcb565b91507f59656172000000000000000000000000000000000000000000000000000000006000830152600482019050919050565b60006109c9600383610dcb565b91507f44617900000000000000000000000000000000000000000000000000000000006000830152600382019050919050565b6000610a09600883610dcb565b91507f4d6174657269616c0000000000000000000000000000000000000000000000006000830152600882019050919050565b6000610a49600583610dcb565b91507f4d6f6e74680000000000000000000000000000000000000000000000000000006000830152600582019050919050565b6000610a89600c83610dcb565b91507f50726f64756374204e616d6500000000000000000000000000000000000000006000830152600c82019050919050565b6000610ac9601883610dcb565b91507f546f74616c20456d697373696f6e7320286b67434f32652900000000000000006000830152601882019050919050565b6000610b09602483610dba565b91507f517565727920636f6e7461696e7320646973616c6c6f7765642064696d656e7360008301527f696f6e73000000000000000000000000000000000000000000000000000000006020830152604082019050919050565b6000610b6e828461090b565b915081905092915050565b6000610b848261093c565b9150819050919050565b6000610b998261097c565b9150819050919050565b6000610bae826109bc565b9150819050919050565b6000610bc3826109fc565b9150819050919050565b6000610bd882610a3c565b9150819050919050565b6000610bed82610a7c565b9150819050919050565b6000610c0282610abc565b9150819050919050565b60006020820190508181036000830152610c26818461084e565b905092915050565b6000602082019050610c4360008301846108c3565b92915050565b600060e082019050610c5e600083018a6108c3565b610c6b60208301896108c3565b610c7860408301886108c3565b610c8560608301876108c3565b610c9260808301866108c3565b610c9f60a08301856108c3565b610cac60c08301846108c3565b98975050505050505050565b60006020820190508181036000830152610cd181610afc565b9050919050565b6000604051905081810181811067ffffffffffffffff82111715610cff57610cfe610ea6565b5b8060405250919050565b600067ffffffffffffffff821115610d2457610d23610ea6565b5b602082029050602081019050919050565b600067ffffffffffffffff821115610d5057610d4f610ea6565b5b601f19601f8301169050602081019050919050565b6000819050602082019050919050565b600081519050919050565b600081519050919050565b6000602082019050919050565b600082825260208201905092915050565b600082825260208201905092915050565b600082825260208201905092915050565b600081905092915050565b60008115159050919050565b6000819050919050565b82818337600083830152505050565b60005b83811015610e19578082015181840152602081019050610dfe565b83811115610e28576000848401525b50505050565b6000610e3982610de2565b91507fffffffffffffffffffffffffffffffffffffffffffffffffffffffffffffffff821415610e6c57610e6b610e77565b5b600182019050919050565b7f4e487b7100000000000000000000000000000000000000000000000000000000600052601160045260246000fd5b7f4e487b7100000000000000000000000000000000000000000000000000000000600052604160045260246000fd5b6000601f19601f830116905091905056fea264697066735822122035aede26e92c16a9dbe0b20fc22a850710010cb2018bed791cf62e4a9483a88864736f6c63430008000033",
  "immutableReferences": {},
  "source": "// SPDX-License-Identifier: MIT\npragma solidity ^0.8.0;\n\ncontract DataFactModel {\n    struct Dimensions {\n        bool ProductName;\n        bool Category;\n        bool Material;\n        bool Year;\n        bool Month;\n        bool Day;\n        bool TotalEmissionsKgCO2e;\n    }\n\n    Dimensions public allowedDimensions;\n\n    event QueryCheck(address indexed user, string[] queryDimensions);\n\n    constructor() {\n        allowedDimensions.ProductName = false;\n        allowedDimensions.Category = false;\n        allowedDimensions.Material = true;\n        allowedDimensions.Year = true;\n        allowedDimensions.Month = true;\n        allowedDimensions.Day = false;\n        allowedDimensions.TotalEmissionsKgCO2e = true;\n    }\n\n    function isQueryAllowed(string[] memory queryDimensions) public view returns (bool) {\n        for (uint i = 0; i < queryDimensions.length; i++) {\n            if (keccak256(abi.encodePacked(queryDimensions[i])) == keccak256(abi.encodePacked(\"Product Name\")) && !allowedDimensions.ProductName) return false;\n            if (keccak256(abi.encodePacked(queryDimensions[i])) == keccak256(abi.encodePacked(\"Category\")) && !allowedDimensions.Category) return false;\n            if (keccak256(abi.encodePacked(queryDimensions[i])) == keccak256(abi.encodePacked(\"Material\")) && !allowedDimensions.Material) return false;\n            if (keccak256(abi.encodePacked(queryDimensions[i])) == keccak256(abi.encodePacked(\"Year\")) && !allowedDimensions.Year) return false;\n            if (keccak256(abi.encodePacked(queryDimensions[i])) == keccak256(abi.encodePacked(\"Month\")) && !allowedDimensions.Month) return false;\n            if (keccak256(abi.encodePacked(queryDimensions[i])) == keccak256(abi.encodePacked(\"Day\")) && !allowedDimensions.Day) return false;\n            if (keccak256(abi.encodePacked(queryDimensions[i])) == keccak256(abi.encodePacked(\"Total Emissions (kgCO2e)\")) && !allowedDimensions.TotalEmissionsKgCO2e) return false;\n        }\n        return true;\n    }\n\n    function executeQuery(string[] memory queryDimensions) public {\n        require(isQueryAllowed(queryDimensions), \"Query contains disallowed dimensions\");\n\n        emit QueryCheck(msg.sender, queryDimensions);\n    }\n}",
  "sourcePath": "/home/carboni/Carboni_Thesis/Blockchain/contracts/DataFactModel.sol",
  "compiler": {
    "name": "solc",
    "version": "0.8.0+commit.c7dfd78e.Emscripten.clang"
  },
  "schemaVersion": "3.4.16",
  "updatedAt": "2025-09-24T08:10:54.959Z",
  "networkType": "ethereum",
  "devdoc": {
    "kind": "dev",
    "methods": {},
    "version": 1
  },
  "userdoc": {
    "kind": "user",
    "methods": {},
    "version": 1
  }
}