{
  "contractName": "HashStorage",
  "abi": [
    {
      "inputs": [
        {
          "internalType": "uint256",
          "name": "timestamp",
          "type": "uint256"
        },
        {
          "internalType": "bytes32",
          "name": "_hash",
          "type": "bytes32"
        }
      ],
      "name": "setHash",
      "outputs": [],
      "stateMutability": "nonpayable",
      "type": "function"
    },
    {
      "inputs": [
        {
          "internalType": "uint256",
          "name": "timestamp",
          "type": "uint256"
        }
      ],
      "name": "getHash",
      "outputs": [
        {
          "internalType": "bytes32",
          "name": "",
          "type": "bytes32"
        }
      ],
      "stateMutability": "view",
      "type": "function",
      "constant": true
    }
  ],
  "bytecode": "0x608060405234801561001057600080fd5b506101ef806100206000396000f3fe608060405234801561001057600080fd5b50600436106100365760003560e01c80636b2fafa91461003b5780636cde63801461006b575b600080fd5b610055600480360381019061005091906100e8565b610087565b604051610062919061015c565b60405180910390f35b61008560048036038101906100809190610111565b6100a3565b005b6000806000838152602001908152602001600020549050919050565b80600080848152602001908152602001600020819055505050565b6000813590506100cd8161018b565b92915050565b6000813590506100e2816101a2565b92915050565b6000602082840312156100fa57600080fd5b6000610108848285016100d3565b91505092915050565b6000806040838503121561012457600080fd5b6000610132858286016100d3565b9250506020610143858286016100be565b9150509250929050565b61015681610177565b82525050565b6000602082019050610171600083018461014d565b92915050565b6000819050919050565b6000819050919050565b61019481610177565b811461019f57600080fd5b50565b6101ab81610181565b81146101b657600080fd5b5056fea2646970667358221220a35af36fb4086dbde3a67dd2aa6c7c408179c638781729c16e365c67e19a498764736f6c63430008000033",
  "immutableReferences": {},
  "source": "// contracts/HashStorage.sol\npragma solidity ^0.8.0;\n\ncontract HashStorage {\n    // Mapping from timestamp (int) to hash (bytes32)\n    mapping(uint256 => bytes32) private timestampToHash;\n\n    // Store a hash with an associated timestamp\n    function setHash(uint256 timestamp, bytes32 _hash) public {\n        timestampToHash[timestamp] = _hash;\n    }\n\n    // Get the hash associated with a timestamp\n    function getHash(uint256 timestamp) public view returns (bytes32) {\n        return timestampToHash[timestamp];\n    }\n}",
  "sourcePath": "/home/carboni/Carboni_Thesis/Blockchain/contracts/HashStorage.sol",
  "compiler": {
    "name": "solc",
    "version": "0.8.0+commit.c7dfd78e.Emscripten.clang"
  },
  "schemaVersion": "3.4.16",
  "updatedAt": "2025-11-23T16:31:50.078Z",
  "networkType": "ethereum",
  "devdoc": {
    "kind": "dev",
    "methods": {},
    "version": 1
  },
  "userdoc": {
    "kind": "user",
    "methods": {},
    "version": 1
  }
}